:020000040800F2
:100000008806002081020008F71400086510000827
:10001000F51400087F0500088D1800080000000096
:100020000000000000000000000000000F180008A1
:100030008105000800000000F914000811180008EC
:100040009B0200089B0200089B0200089B0200081C
:100050009B0200089B0200089B0200089B0200080C
:100060009B0200089B0200089B0200089B020008FC
:100070009B0200089B0200089B0200089B020008EC
:100080009B020008000000009B0200089B02000881
:100090009B0200089B0200089B0200089B020008CC
:1000A0009B0200089B0200089B0200089B020008BC
:1000B0009B0200089B0200089B0200089B020008AC
:1000C0009B0200089B0200089B0200089B0200089C
:1000D0009B0200089B0200089B0200089B0200088C
:1000E0009B0200089B0200089B0200089B0200087C
:1000F0009B0200089B0200089B0200080000000011
:10010000000000009B020008000000009B020008A5
:100110009B020008000000009B0200089B020008F0
:100120009B0200089B0200089B0200089B0200083B
:100130009B02000800000000000000009B02000875
:100140009B0200089B020008000000000000000065
:10015000000000000000000000000000000000009F
:100160000000000000000000000000009B020008EA
:100170009B020008000000000000000000000000DA
:10018000000000009B0200080000000000000000CA
:10019000000000000000000000000000000000005F
:1001A00000000000000000009B0200089B02000805
:1001B0009B0200089B0200089B0200080000000050
:1001C000000000009B02000800000000000000008A
:1001D0009B0200089B02000800F002F800F041F8C2
:1001E0000AA090E8000C82448344AAF10107DA4592
:1001F00001D100F036F8AFF2090EBAE80F0013F0A3
:10020000010F18BFFB1A43F001031847F42900003F
:10021000142A0000103A24BF78C878C1FAD85207CF
:1002200024BF30C830C144BF04680C607047000070
:100230000023002400250026103A28BF78C1FBD8EF
:10024000520728BF30C148BF0B607047642900F0D7
:100250007F80002070471FB501F0DDFB1FBD10B58A
:1002600010BD00F052F91146FFF7F5FF01F0BCFB9D
:1002700000F070F903B4FFF7F2FF03BC00F078F967
:100280000948804709480047FEE7FEE7FEE7FEE72A
:10029000FEE7FEE7FEE7FEE7FEE7FEE70448054966
:1002A000054A064B704700007D180008D901000878
:1002B0008800002088060020880200208802002094
:1002C0000FB41CB5074B06AA7B44694600900598FD
:1002D00000F003F90020694600F012F91CBC5DF83B
:1002E00014FB0000350200002DE9F0410E460446E3
:1002F000002020622046E168884730B3252805D0D9
:10030000D4E901219047206A401CF2E7E1682046C9
:1003100000278847050018D0A5F14100192802D808
:1003200020354FF400673246294620462760FFF704
:100330008DFF40B1012804D0F61D26F007060836CF
:10034000D8E7361DD6E72846DAE7206ABDE8F0810F
:100350002DE9F0410646002410687529314616A59E
:1003600010D0AFF30080002802DA404213A507E066
:1003700031688A0701D512A502E0490704D511A505
:10038000012401E0AFF3008000210A2206F12407D6
:1003900009E0B0FBF2FCB0FBF2F302FB1C003030D2
:1003A00078541846491C0028F3D123462A46304683
:1003B000BDE8F04100F032B8000000002D00000060
:1003C0002B000000200000004FF0000200B5134693
:1003D00094469646203922BFA0E80C50A0E80C5065
:1003E000B1F12001BFF4F7AF090728BFA0E80C5016
:1003F00048BF0CC05DF804EB890028BF40F8042B0F
:1004000008BF704748BF20F8022B11F0804F18BF7B
:1004100000F8012B70477047704770472DE9F0478F
:100420000D4699469246044600F124080168880664
:1004300004D5E06921F01001216000E00120A8420C
:1004400001DD471B00E00027A1697A1902EB0900D2
:10045000081AA0612078C00602D42046AFF30080BD
:10046000002608E0D4E901211AF806009047206A26
:10047000401C761C20624E45F4DB2078C0060AD56D
:100480002046AFF3008006E0D4E9012130209047F8
:10049000206A401C2062381EA7F10107F4DC07E047
:1004A000D4E9012118F805009047206A401C206219
:1004B000281EA5F10105F3DC2046AFF3008020786B
:1004C000000602D50220BDE8F0870120FBE700000E
:1004D00001694A1C02610878704700B58FB0CDE908
:1004E00001310021059105497944CDE903101146F8
:1004F0006846FFF7F9FE0FB000BD0000E5FFFFFF03
:100500000A6802F8010B0A607047754600F02CF883
:10051000AE4605006946534620F00700854618B0F0
:1005200020B5FFF7BBFEBDE820404FF000064FF0BE
:1005300000074FF000084FF0000B21F00701AC4618
:10054000ACE8C009ACE8C009ACE8C009ACE8C00937
:100550008D46704710B50446AFF300802046BDE8D5
:100560001040FFF787BE00000048704724000020BD
:1005700001491820ABBEFEE7260002007047FEE7E7
:100580007047002240F6B83306E00021491C89B2CA
:100590009942FBD3521C92B28242F6D370470000BC
:1005A00070B5044600F032F90546601C02D00448DC
:1005B0004068044400F02AF9401BA042FAD370BD01
:1005C000040000202DE9F04FDFF80C9200230126F3
:1005D0000325A9F1040B85B00F2709F1040AABF13B
:1005E000040EF1E006FA03FC12EA0C027ED00C794C
:1005F00004F00304012C01D0022C20D18468009463
:100600005C0005FA04F80494009C24EA08040094B1
:10061000D1F80C80049C08FA04F8009C48EA04080D
:10062000C0F80880446824EA0C0491F804C0CCF3B4
:10063000001C0CFA03FC4CEA040CC0F804C00C7952
:10064000E443A40702D18C68012C0ED0C4684FEAA1
:10065000430805FA08FC24EA0C04D1F808C00CFA97
:1006600008FC4CEA040CC0F80CC00C7904F003043C
:10067000022C16D1DC0800EB840CCDF808C0DCF8A5
:1006800020C05C074FEAD46807FA08F42CEA040C8F
:100690000C6904FA08F444EA0C04DDF808C0CCF84C
:1006A000204004684FEA430805FA08FC24EA0C04D9
:1006B00091F804C00CF0030C0CFA08FC4CEA040C92
:1006C000C0F800C04C6814F4403F7CD0434CD4F8D0
:1006D00060C04CF0010CC4F860C0246E23F0030C21
:1006E00004F0010400943E4C644400E06BE002948A
:1006F000A4684FEA837C4FEA1C7807FA08FC24EAD6
:100700000C04B0F1904F06D0DFF8D8C0604505D199
:100710004FF0010C20E04FF0000C1DE0DFF8C8C0E6
:10072000604502D14FF0020C16E0DFF8C0C0604512
:1007300002D14FF0030C0FE0DFF8B4C0604502D1E6
:100740004FF0040C08E0DFF8ACC0604502D14FF078
:10075000050C01E04FF0060C0CFA08FC4CEA040C06
:10076000029CC4F808C0D9F80040CC46D1F80480F7
:1007700094435FEAC82800D51443CCF80040DAF867
:100780000040D446D1F8048094435FEA882800D51D
:100790001443CCF80040DBF80040DC46D1F804807C
:1007A00094435FEA883800D51443CCF80040DEF863
:1007B0000040F446D1F8048094435FEAC83800D57D
:1007C0001443CCF800405B1C0C682246DC407FF4EC
:1007D00009AF05B0BDE8F08F0804014000100240E9
:1007E000000001400004004800080048000C0048D8
:1007F00000100048001400480069084000D00120A3
:1008000070470AB181617047816270470148806812
:1008100070470000040000200248816842681144CB
:10082000816070470400002010B50024032000F010
:1008300065F80F2000F008F808B1012401E000F08D
:1008400025F8204610BD000070B50E4E0546002468
:10085000706898B14FF47A71B1FBF0F00A490968F9
:10086000B1FBF0F000F0EAFB40B9102D06D20022F7
:100870002946501E00F022F8356000E00124204691
:1008800070BD000004000020100000200A4882B063
:10089000016E41F001010166016E01F0010100915C
:1008A000816D41F080518165806D00F08050009035
:1008B00002B000F093B8000000100240F0B40E4BFC
:1008C0001B680C46C3F30223C3F10705042D00D9AE
:1008D0000425191D072901D2002300E0DB1E012693
:1008E00006FA05F1491E214099409E40761E1640A9
:1008F0003143F0BC00F0CBBF0CED00E0064900F046
:10090000070208684FF6FF03184040EA0220034A36
:1009100010430860704700000CED00E00000FA058D
:100920002B492C4B0A6832214A432B4940B1B0F580
:10093000007F086829D020F4C06040F480602CE07B
:100940000868C0F34120022804D051F8800F20F439
:10095000807022E0D1F8800020F48070C1F880001F
:10096000086820F4C06040F400700860B2FBF3F047
:10097000401C00E0401E4A69520501D50028F9D10B
:10098000486940050AD503207047C0F3412002287A
:1009900006D051F8800F40F4807008600020704746
:1009A000D1F8800040F48070C1F88000086820F41D
:1009B000C06040F400700860B2FBF3F0401C00E03F
:1009C000401E4A695205DBD50028F9D1D8E700005E
:1009D0001000002040420F00007000400248816873
:1009E00041F4804181607047007000402DE9F0477C
:1009F0000E4605004FF0000725D0DFF8AC81D8F88F
:100A0000000000F00F00B0420CD2D8F8001021F026
:100A10000F013143C8F80010D8F8000000F00F00B3
:100A2000B04210D12968614CC80741F2883A5AD0C7
:100A30006868DFF87C91032808D0022820682DD050
:100A4000400500282CDB0120BDE8F08720688001EC
:100A5000F9D5E06800F00302E068C0F30310401C21
:100A6000032A19D0534A00BFB2FBF0F0E268C2F388
:100A700006225043E268C2F34162521C5200B0FBAE
:100A8000F2F0484517D9A06810F0F00F0CD0880795
:100A900011D5A86840B10EE0474AE5E78003D0E7EA
:100AA00000F092F8484506D9A06820F0F00040F028
:100AB0008000A0608027A068696820F003000843D8
:100AC000A060FFF7A3FE814606E000BFFFF79EFE91
:100AD000A0EB090151453AD8A068696800F00C0004
:100AE000B0EB810FF2D12868810714D5400703D5F8
:100AF000A06840F4E060A0602878000705D5A068F1
:100B000020F4605040F4E060A060A068A96820F084
:100B1000F000084304E0802F03D1A06820F0F0002B
:100B2000A060D8F80010404601F00F01B14216D97C
:100B3000016821F00F0131430160FFF767FE0746AE
:100B400007E000BFFFF762FEC11B514501D903203A
:100B50007AE7D8F8000000F00F00B042F2D1287810
:100B6000400705D5A068E96820F4E0600843A0606C
:100B70002878000706D5A068296920F4605040EA6B
:100B8000C100A06000F020F8A1680C4AC1F3031175
:100B9000515C01F01F01C84009490860094800681C
:100BA000BDE8F047FFF750BE0020024000100240B1
:100BB00000B4C4040024F40000366E01201A0008BA
:100BC0001000002004000020184910B58868C0F308
:100BD00081021748012A0BD08A68164BC2F38102A2
:100BE000022A06D08A68C2F38102032A03D00020B9
:100BF00010BD184610BDCA6802F00304CA68C2F3EB
:100C00000312521C032C02D0B0FBF2F001E0B3FB44
:100C1000F2F0CA68C968C2F306225043C1F34161C9
:100C2000491C4900B0FBF1F010BD0000001002406B
:100C30000024F40000366E012DE9F84304007AD058
:100C40002078F84DC00747D0A868E96800F00C008C
:100C500001F003010C2802D0082817D001E0032975
:100C600014D06068B0F5803F17D0B0F5A02F286889
:100C700017D020F480302860286820F48020286075
:100C80006068E0B1FFF7C2FD064614E02868800303
:100C900022D560680028D2D01EE0286840F4803059
:100CA000EDE740F480202860F7E700BFFFF7AEFDD6
:100CB000801B642870D828688003F7D50CE0FFF704
:100CC000A5FD064605E000BFFFF7A0FD801B6428D8
:100CD000F0D828688003F7D4207880074CD5A8681E
:100CE000E96800F00C0001F003010C2802D0042890
:100CF0000DD001E002290AD0E068002828682BD036
:100D000040F480702860FFF781FD064619E02868EE
:100D1000400502D5E068002891D06868217C20F069
:100D2000FE4040EA01606860BF480068FFF78CFD44
:100D3000002800D120E072E1FFF768FD801B022847
:100D4000B8D828684005F7D56868217C20F0FE40B7
:100D500040EA016068600FE020F480702860FFF7CF
:100D600055FD064605E000BFFFF750FD801B022839
:100D7000A0D828684005F7D42078000729D56069F5
:100D80000028D5F8940013D040F00100C5F8940075
:100D9000FFF73CFD064606E090E000BFFFF736FD9A
:100DA000801B022886D8D5F894008007F6D510E07D
:100DB00020F00100C5F89400FFF728FD064604E086
:100DC000FFF724FD801B022878D8D5F8940080070F
:100DD000F6D42078400761D5A86D0026C00008D45D
:100DE000A86D40F08050A865A86D012600F08050E5
:100DF00000908E480168C90511D40168804641F40D
:100E000080710160FFF702FD074604E0FFF7FEFC7A
:100E1000C01B022852D8D8F80000C005F6D5A0683B
:100E2000012815D00528D5F8900016D020F0010033
:100E3000C5F89000D5F8900020F00400C5F89000A7
:100E4000A06841F28838B8B1FFF7E0FC07460EE031
:100E5000D5F8900040F00100F0E740F00400C5F83C
:100E60009000F5E7FFF7D2FCC11B414526D8D5F825
:100E700090008007F6D50CE0FFF7C8FC074604E0B9
:100E8000FFF7C4FCC11B414518D8D5F89000800776
:100E9000F6D41EB1A86D20F08050A8652078800699
:100EA00029D5A0690028D5F8980013D040F001009A
:100EB000C5F89800FFF7AAFC064606E075E000BFFB
:100EC000FFF7A4FC801B02286FD8D5F89800800794
:100ED000F6D510E020F00100C5F89800FFF796FC69
:100EE000064604E0FFF792FC801B02285DD8D5F887
:100EF00098008007F6D4E069F0B3A968C1F38101D6
:100F000003295DD00228286820F08070286003D073
:100F1000FFF77CFC04464BE0FFF778FC064604E054
:100F2000FFF774FC801B02283FD828688001F7D4A3
:100F3000F4E908016FF00F0202EB01110843218A66
:100F40005204490802EB4151A26841EA02210843D8
:100F5000217D4FF07E42490802EB41610843217B2D
:100F600040EAC160E968324A11400843E8602868F5
:100F700040F08070286000E05EE0E86840F080703B
:100F8000E860FFF743FC044605E000BFFFF73EFCC6
:100F9000001B022809D828688001F7D54CE000BF63
:100FA000FFF734FC001B022802D90320BDE8F883B8
:100FB00028688001F4D4E8681E490840E8603BE0F6
:100FC0000128F3D0E868226A00F00301914226D19B
:100FD000616A00F0F0020901103991421FD1A26A42
:100FE00000F4FE41B1EB022F19D194F82C2000F04F
:100FF0007841B1EBC26F12D1218E00F4C0024908D2
:101000004905A1F50011914209D194F8341000F07E
:10101000C06049084906A1F1007181420CD001204D
:10102000C4E70000001002400400002000700040EF
:101030000C809F01FCFFEEFE0020B7E710B5401EBC
:10104000B0F1807F01D3012010BD4FF0E02460613A
:101050000F21601700F01BFC0020A0610720206119
:10106000002010BDFEE7000000B585B014216846E1
:10107000FFF7AAF94FF6FF70009000200321CDE999
:101080000201019069460248FFF79CFA05B000BDD5
:101090000008004800B585B014216846FFF794F9B0
:1010A0004FF6FF7000900120019003200390002074
:1010B000029069460248FFF785FA05B000BD0000BE
:1010C0000008004870B5002406462146204600F07E
:1010D00003F900F041F94FF49635304600F010F96D
:1010E000641CAC42F9D370BD70B586B0142168465B
:1010F000FFF76AF91E48C16C41F00401C164C16C7C
:1011000001F004010591C16C41F00101C164C16CA1
:1011100001F001010591C16C41F00201C164C06C94
:10112000032500F0020005904FF4487001240026CA
:1011300003958DE8510069460E48FFF743FA2002F7
:1011400003958DE851004FF0904469462046FFF723
:1011500039FAFFF79FFFA06940F48070A06105484D
:101160001830016841F40871016006B070BD0000DC
:101170000010024000040048203AD2B2034B02EBB8
:10118000420203EB021200F019B80000301A000806
:10119000F0B50E460746002540F23F1407E0214611
:1011A0003846FFF7E9FF103C6D1CA4B2761C32787C
:1011B000002A01D0142DF2D3F0BD00002DE9F04734
:1011C00091468A460026044600F086F8DFF8408003
:1011D000012700BF00F0C0F85FF0000539F81600E5
:1011E00007FA05F10842404601D1408800E0008836
:1011F00000F086F86D1C102DF0D3641CE4B251464B
:10120000204600F069F8761C182EE3D3BDE8F0877D
:101210001C00002010B5FFF767FF002000F014F855
:10122000084CA080A088A0F50241303906D000F01B
:10123000EDF9002000F008F8A08010BD00F05DF985
:10124000F7E700001C00002070B51D490A6842F451
:1012500000720A600A6842F480720A60184C103CFE
:10126000226842F020022260164A1060086840F0AE
:101270002000086000BF00BF00BF206840F02000D1
:101280002060206840F480702060FFF7EDFE4FF092
:101290009041886A40F48070886200BF00BF00BF40
:1012A0000848001F006885B2886940F48070886132
:1012B000FFF7F0FE206840F400702060284670BD03
:1012C000280400481408004801B5BDF80000014991
:1012D000488008BD1C00002010B50C4601462020A7
:1012E00000F068F82146BDE81040212000F062B807
:1012F00001B5BDF800000149088008BD1C000020B0
:10130000134A116841F400711160114910390B68DA
:1013100043F480730B600B6843F020030B600D4BAC
:101320001860106840F02000106000BF00BF00BFD0
:10133000086840F020000860086840F48070086089
:1013400000BF00BF00BF086840F40070086070472D
:1013500028040048140800481449086840F4007044
:101360000860086840F4807008601048103802680F
:1013700042F0200202600E4B22221A600A6842F0FC
:1013800020020A6000BF00BF00BF016841F02001D9
:101390000160016841F48071016000BF00BF00BFBF
:1013A000016841F4007101607047000028040048A2
:1013B00014080048184B10B51A6842F400721A60FD
:1013C0001A6842F480721A60134A103A146844F0A2
:1013D00020041460114C2060186840F02000186050
:1013E00000BF00BF00BF106840F020001060106810
:1013F00040F4807010602160186840F02000186090
:1014000000BF00BF00BF106840F0200010601068EF
:1014100040F48070106010BD280400481408004893
:10142000F0B587B014216846FEF7CEFF2D48C16C99
:1014300041F00401C164C16C01F004010591C16C6B
:1014400041F02001C164C16C01F020010591C16C23
:1014500041F00101C164C16C01F001010591C16C51
:1014600041F00201C164C16C01F002010591C16C3F
:1014700041F00801C164C06C1B4E00F008004FF43D
:101480007F440590002221463046FFF7BAF9174FF6
:10149000002204213846FFF7B4F90125CDE90045C3
:1014A00000240294694630460394FFF78BF8CDE997
:1014B000005469464FF090400295FFF783F80720EB
:1014C0008DE8310069460A48FFF77CF80420009057
:1014D000CDE90154694638460394FFF773F807B025
:1014E000F0BD00000010024000080048000C004859
:1014F00000040048FEE7FEE7704730B501210020F8
:10150000FFF758FF4FF47A70FFF73BF800210120F6
:10151000FFF750FF41F290711020FFF74BFF4FF49F
:101520001C516020FFF746FF01216120FFF742FFB9
:1015300002214620FFF73EFF48F210011320FFF77B
:1015400039FF48F2FE011220FFF734FF4FF4A0618B
:101550000220FFF72FFF41F230010320FFF72AFF9F
:1015600040F2033421463020FFF724FF214631208A
:10157000FFF720FF21463220FFF71CFFE51E29461A
:101580003320FFF717FF03213420FFF713FF214615
:101590003520FFF70FFF14213620FFF70BFF214600
:1015A0003720FFF707FF21463820FFF703FF2146CA
:1015B0003920FFF7FFFE29463A20FFF7FBFE032103
:1015C0003B20FFF7F7FE21463C20FFF7F3FE4FF4E8
:1015D000A0513D20FFF7EEFE4FF400719220FFF77F
:1015E000E9FE21469320FFF7E5FE40F60D0190202D
:1015F000FFF7E0FE41F218010320FFF7DBFEBDE834
:10160000304040F273110720FFF7D4BE10B543F20B
:101610000801E320FFF7CEFE1221E720FFF7CAFE04
:1016200041F23121EF20FFF7C5FE00210120FFF735
:10163000C1FE4FF4E0610220FFF7BCFE41F2300131
:101640000320FFF7B7FE00210420FFF7B3FE40F2AE
:1016500007210820FFF7AEFE00210920FFF7AAFEB0
:1016600000210A20FFF7A6FE00210C20FFF7A2FEB2
:1016700000210D20FFF79EFE00210F20FFF79AFEAC
:1016800000211020FFF796FE07211120FFF792FEA0
:1016900000211220FFF78EFE00211320FFF78AFEA3
:1016A000C820FEF77DFF41F290611020FFF782FE17
:1016B00040F227211120FFF77DFE3220FEF770FF58
:1016C0001D211220FFF776FE3220FEF769FF4FF44E
:1016D00000611320FFF76EFE14212920FFF76AFE38
:1016E0000B212B20FFF766FE3220FEF759FF002169
:1016F0002020FFF75FFE00212120FFF75BFE07217E
:101700003020FFF757FE40F207713120FFF752FEFD
:1017100006213220FFF74EFE40F204713520FFF71C
:1017200049FE41F604713620FFF744FE04213720BC
:10173000FFF740FE00213820FFF73CFE40F2067123
:101740003920FFF737FE40F201713C20FFF732FEEF
:101750000F213D20FFF72EFE00215020FFF72AFE2B
:10176000EF215120FFF726FE00215220FFF722FE35
:1017700040F23F115320FFF71DFE4FF41C51602033
:10178000FFF718FE01216120FFF714FE00216A20F7
:10179000FFF710FE00218020FFF70CFE00218120C2
:1017A000FFF708FE00218220FFF704FE00218320BE
:1017B000FFF700FE00218420FFF7FCFD00218520BB
:1017C000FFF7F8FD10219020FFF7F4FD0021922093
:1017D000FFF7F0FD03219320FFF7ECFD4FF4887134
:1017E0009520FFF7E7FD00219720FFF7E3FD00219B
:1017F0009820FFF7DFFD41F218010320FFF7DAFD23
:10180000BDE8104040F273110720FFF7D3BD7047C9
:10181000FFF702B810B594B038216846FEF7D4FD42
:1018200014210EA8FEF7D0FD4FF40070FFF778F8F2
:10183000012000900004019002200324CDE9070458
:101840001421CDE90A100C900D9009946846FFF719
:10185000F3F908B172B6FEE70F20CDE90E040020BF
:1018600010901190129002210EA8FFF7BFF80028E7
:1018700001D072B6FEE714B010BD00000248016846
:1018800041F470010160704788ED00E0FEE7090750
:10189000090E002804DB00F1E02080F800147047F6
:1018A00000F00F0000F1E02080F8141D70470000E8
:1018B00070B5214D01212846FEF79EFF1F4C0221E5
:1018C00020702846FEF798FFA07004212846FEF7F6
:1018D00093FF207101214FF09040FEF78DFFA07122
:1018E0002178174829B96178012902D10168491C7A
:1018F0000160A17829B9E178012902D10168491E66
:101900000160207930B96079012803D101210220DA
:1019100000F048F8A07930B9E079012803D100211E
:10192000022000F03FF820786070A078E070207905
:101930006071A079E07170BD0004004814000020BF
:101940000000002000B585B009A16846FEF7B8FC8C
:1019500069460020FFF71CFC0B480CA10268684692
:10196000FEF7AEFC69464820FFF712FC05B000BD4B
:101970002020202020202020746573742020202027
:101980002020202000000000000000202020202037
:101990002020636F756E743A20256420202020205B
:1019A0000000000070B50E4E0D46044601220421D1
:1019B0003046FEF726FF4FF48070641EA040094BAE
:1019C00081B20DB1002200E001221846FEF719FF96
:1019D0003046BDE8704000220421FEF712BF00002F
:1019E000000C004800080048FEF71EFFFFF712FF3A
:1019F000FFF716FDFFF70EFC0020FFF763FB00204A
:101A0000FFF762FC4FF6E070FFF772FCFFF79AFFFA
:101A1000FFF74EFFFAE74FF04070E1EE100A704713
:101A2000000000000000000001020304060708098E
:101A300000000000000000000000000000000000A6
:101A40000000000000000000000000000000000096
:101A50000000000000000000000000000000000086
:101A600000008001800180018001800180018001EF
:101A70008001800180018001800180010000000060
:101A80008001800100000000000000000000000054
:101A900000000000CC00CC00CC00CC00CC00CC007E
:101AA0000000000000000000000000000000000036
:101AB0000000000000000000000000000000000026
:101AC000000000000000000000000000600C600C3E
:101AD000600C30063006FE1FFE1F30063807180364
:101AE000FE1FFE1F180318038C018C018C010000DF
:101AF00000008000E003F80F9C0E8C1C8C188C00FA
:101B00009800F801E007800E801C8C188C189C1837
:101B1000B80CF00FE003800080000000000000001F
:101B20000000000000000E181B0C110C110611061D
:101B3000110311039B018E01C038C06C60446044E6
:101B4000304430441844186C0C3800000000000089
:101B50000000E001F0033807180618063003F00112
:101B6000F000F8009C310E33061E061C061C063FD2
:101B7000FC73F021000000000000000000000000E5
:101B8000000000000C000C000C000C000C000C000D
:101B90000000000000000000000000000000000045
:101BA0000000000000000000000000000000000035
:101BB0000000000200038001C000C000600060005F
:101BC0003000300030003000300030003000300095
:101BD00060006000C000C00080010003000200003F
:101BE000000020006000C0008001800100030003AD
:101BF00000060006000600060006000600060006B5
:101C00000003000380018001C0006000200000008C
:101C1000000000000000000000000000C000C00044
:101C2000D806F807E0013003380700000000000084
:101C300000000000000000000000000000000000A4
:101C40000000000000000000000000008001800192
:101C5000800180018001FC3FFC3F80018001800108
:101C60008001800100000000000000000000000072
:101C70000000000000000000000000000000000064
:101C80000000000000000000000000000000000054
:101C900000008001800100010001800000000000C0
:101CA0000000000000000000000000000000000034
:101CB0000000000000000000E007E0070000000056
:101CC0000000000000000000000000000000000014
:101CD0000000000000000000000000000000000004
:101CE00000000000000000000000000000000000F4
:101CF0000000C000C0000000000000000000000064
:101D00000000000C000C00060006000600030003A3
:101D100000038003800180018001C000C000C0007A
:101D200060006000000000000000000000000000F3
:101D30000000E003F007380E180C0C180C180C18F3
:101D40000C180C180C180C180C180C18180C380E51
:101D5000F007E003000000000000000000000000A9
:101D6000000000018001C001F0019801880180019C
:101D7000800180018001800180018001800180015B
:101D80008001800100000000000000000000000051
:101D90000000E003F80F180C0C180C1800180018BD
:101DA000000C000600038001C00060003000180035
:101DB000FC1FFC1F000000000000000000000000ED
:101DC0000000E001F807180E0C0C0C0C000C0006CB
:101DD000C003C007000C001800180C180C18180CD1
:101DE000F807E00300000000000000000000000011
:101DF0000000000C000E000F000F800DC00C600CE6
:101E0000600C300C180C0C0CFC3FFC3F000C000C60
:101E1000000C000C000000000000000000000000AA
:101E20000000F80FF80F180018000C00EC03FC0776
:101E30001C0E001C0018001800180C181C0C180EA2
:101E4000F807E003000000000000000000000000B0
:101E50000000C007F00F381C181818000C00CC0345
:101E6000EC0F3C0E1C1C0C180C180C18181C380E0F
:101E7000F007E00300000000000000000000000088
:101E80000000FC1FFC1F000C00060006000380037E
:101E90008001C001C000E000600060007000300000
:101EA00030003000000000000000000000000000D2
:101EB0000000E003F007380E180C180C180C380658
:101EC000F007F007180C0C180C180C180C18380C2C
:101ED000F80FE00300000000000000000000000018
:101EE0000000E003F007380E1C0C0C180C180C183E
:101EF0001C1C381EF81BE0190018000C000C1C0EEE
:101F0000F807F001000000000000000000000000E1
:101F100000000000000000000000000080018001BF
:101F200000000000000000000000000000000000B1
:101F3000800180010000000000000000000000009F
:101F4000000000000000000000000000800180018F
:101F50000000000000000000000000000000000081
:101F600080018001000100018000000000000000ED
:101F70000000000000000000000000000000000061
:101F80000010001C800FE003F8001800F800E003C8
:101F9000800F001C00100000000000000000000086
:101FA0000000000000000000000000000000000031
:101FB000F81F000000000000F81F000000000000F3
:101FC0000000000000000000000000000000000011
:101FD0000000000000000000000000000000000001
:101FE00008003800F001C007001F0018001FC007DC
:101FF000F0013800080000000000000000000000B0
:102000000000E003F80F180C0C180C180018000C56
:10201000000600038001C000C000C00000000000F6
:10202000C000C00000000000000000000000000030
:1020300000000000E00718180420C229224A1144B9
:1020400009440944094409221113E20C0240042006
:102050001818E00700000000000000000000000069
:10206000000080038003C006C006C006600C600C40
:10207000301830183018F83FF83F1C700C600C60B6
:1020800006C006C0000000000000000000000000C4
:102090000000FC03FC0F0C0C0C180C180C180C0C9A
:1020A000FC07FC0F0C180C300C300C300C300C18EA
:1020B000FC1FFC0700000000000000000000000002
:1020C0000000C007F01F38381C300C700660060096
:1020D0000600060006000600060006600C701C30B4
:1020E000F01FE007000000000000000000000000FA
:1020F0000000FE03FE0F060E061806180630063016
:102100000630063006300630063006180618060E71
:10211000FE0FFE03000000000000000000000000B1
:102120000000FC3FFC3F0C000C000C000C000C00FD
:10213000FC1FFC1F0C000C000C000C000C000C0021
:10214000FC3FFC3F00000000000000000000000019
:102150000000F83FF83F1800180018001800180099
:10216000F81FF81F180018001800180018001800B1
:10217000180018000000000000000000000000002F
:102180000000E00FF83F3C780E6006E007C0030057
:10219000030003FE03FE03C007C006C00EC03CF0F0
:1021A000F83FE00F00000000000000000000000009
:1021B00000000C300C300C300C300C300C300C307B
:1021C000FC3FFC3F0C300C300C300C300C300C3031
:1021D0000C300C3000000000000000000000000087
:1021E0000000800180018001800180018001800168
:1021F00080018001800180018001800180018001D7
:1022000080018001000000000000000000000000CC
:102210000000000600060006000600060006000694
:102220000006000600060006000618061806380715
:10223000F003E001000000000000000000000000CA
:10224000000006300618060C060606038601C600C6
:1022500066007600DE008E0106030606060C0618F0
:1022600006300660000000000000000000000000D2
:1022700000001800180018001800180018001800B6
:10228000180018001800180018001800180018008E
:10229000F81FF81F00000000000000000000000010
:1022A00000000EE01EF01EF01EF036D836D836D8EC
:1022B00036D866CC66CC66CCC6C6C6C6C6C6C6C64A
:1022C00086C386C30000000000000000000000007C
:1022D00000000C301C303C303C306C306C30CC306A
:1022E000CC308C310C330C330C360C360C3C0C3CA3
:1022F0000C380C300000000000000000000000005E
:102300000000E007F81F1C380E70066003C003C011
:1023100003C003C003C003C003C006600E701C38B6
:10232000F81FE007000000000000000000000000AF
:102330000000FC0FFC1F0C380C300C300C300C3043
:102340000C18FC1FFC070C000C000C000C000C000F
:102350000C000C0000000000000000000000000065
:102360000000E007F81F1C380E70066003E003C091
:1023700003C003C003C003C007E006630E3F1C3C5C
:10238000F83FE0F700C0000000000000000000007F
:102390000000FE0FFE1F06380630063006300638F5
:1023A000FE1FFE0706030606060C06180618063072
:1023B0000630066000000000000000000000000081
:1023C0000000E003F80F1C0C0C180C180C001C008B
:1023D000F803E00F001E0038063006300E301C1CDB
:1023E000F80FE007000000000000000000000000FF
:1023F0000000FE7FFE7F800180018001800180015E
:1024000080018001800180018001800180018001C4
:1024100080018001000000000000000000000000BA
:1024200000000C300C300C300C300C300C300C3008
:102430000C300C300C300C300C300C300C301818C8
:10244000F81FE0070000000000000000000000008E
:10245000000003600630063006300C180C180C180B
:10246000180C180C380E3006300670076003600335
:10247000C001C001000000000000000000000000DA
:1024800000000360C361C361C361663366336633B2
:102490006633663366336C1B6C1B6C1B2C1A3C1E3C
:1024A000380E380E000000000000000000000000A0
:1024B00000000FE00C7018303018700C600EC00770
:1024C00080038003C003E006700C301C18180C3029
:1024D0000E6007E0000000000000000000000000A7
:1024E000000003C006600C301C383818300C600641
:1024F000E007C0038001800180018001800180012C
:1025000080018001000000000000000000000000C9
:102510000000FC7FFC7F006000300018000C00060B
:1025200000038001C0006000300018000C000600AD
:10253000FE7FFE7F000000000000000000000000A1
:102540000000E003E00360006000600060006000E5
:10255000600060006000600060006000600060007B
:1025600060006000600060006000E003E0030000C5
:10257000000030003000600060006000C000C0005B
:10258000C000C0018001800180010003000300033E
:10259000000600060000000000000000000000002F
:1025A0000000E003E0030003000300030003000356
:1025B0000003000300030003000300030003000303
:1025C00000030003000300030003E003E003000036
:1025D00000000000C001C00160036003600330061A
:1025E0003006180C180C000000000000000000006D
:1025F00000000000000000000000000000000000DB
:1026000000000000000000000000000000000000CA
:1026100000000000000000000000000000000000BA
:102620000000FFFFFFFF00000000000000000000AE
:1026300000000C000C000C000C000C000C00000052
:10264000000000000000000000000000000000008A
:10265000000000000000000000000000000000007A
:10266000000000000000000000000000F003F80778
:102670001C0C0C0C000FF00FF80C0C0C0C0C1C0FAD
:10268000F80FF0180000000000000000000000003B
:10269000000018001800180018001800D803F80FE0
:1026A000380C181818181818181818181818380C82
:1026B000F80FD80300000000000000000000000038
:1026C000000000000000000000000000C003F00750
:1026D000300E180C1800180018001800180C300ED6
:1026E000F007C00300000000000000000000000030
:1026F000000000180018001800180018C01BF01F78
:10270000301C181818181818181818181818301C11
:10271000F01FC01B000000000000000000000000CF
:10272000000000000000000000000000C003F00FE7
:10273000300C1818F81FF81F180018003818301C33
:10274000F00FC007000000000000000000000000C3
:102750000000800FC00FC000C000C000F007F007ED
:10276000C000C000C000C000C000C000C000C00069
:10277000C000C000000000000000000000000000D9
:10278000000000000000000000000000E00DF80F55
:10279000180E0C0C0C0C0C0C0C0C0C0C0C0C180E5D
:1027A000F80FE00D000C0C0C1C06F807F0010000FF
:1027B000000018001800180018001800D807F80FBB
:1027C000381C181818181818181818181818181865
:1027D0001818181800000000000000000000000099
:1027E0000000C000C000000000000000C000C000E9
:1027F000C000C000C000C000C000C000C000C000D9
:10280000C000C00000000000000000000000000048
:102810000000C000C000000000000000C000C000B8
:10282000C000C000C000C000C000C000C000C000A8
:10283000C000C000C000C000C000F8007800000068
:1028400000000C000C000C000C000C000C0C0C0622
:102850000C038C01CC006C00FC009C018C030C036D
:102860000C060C0C0000000000000000000000003E
:102870000000C000C000C000C000C000C000C00018
:10288000C000C000C000C000C000C000C000C00048
:10289000C000C000000000000000000000000000B8
:1028A0000000000000000000000000007C3CFF7EF3
:1028B000C7E383C183C183C183C183C183C183C192
:1028C00083C183C100000000000000000000000080
:1028D0000000000000000000000000009807F80F52
:1028E000381C181818181818181818181818181844
:1028F0001818181800000000000000000000000078
:10290000000000000000000000000000C003F00F05
:10291000300C181818181818181818181818300C1F
:10292000F00FC003000000000000000000000000E5
:10293000000000000000000000000000D803F80FB5
:10294000380C181818181818181818181818380CDF
:10295000F80FD8031800180018001800180000001D
:10296000000000000000000000000000C01BF01F7D
:10297000301C181818181818181818181818301C9F
:10298000F01FC01B001800180018001800180000E5
:10299000000000000000000000000000B007F0038D
:1029A0007000300030003000300030003000300067
:1029B00030003000000000000000000000000000B7
:1029C000000000000000000000000000E003F00331
:1029D000380E180C3800F003C007000C180C380E25
:1029E000F007E0030000000000000000000000000D
:1029F000000000008000C000C000C000F007F00729
:102A0000C000C000C000C000C000C000C000C000C6
:102A1000C007800700000000000000000000000068
:102A20000000000000000000000000001818181846
:102A30001818181818181818181818181818381CF2
:102A4000F01FE0190000000000000000000000007E
:102A50000000000000000000000000000C18180C2E
:102A6000180C180C30063006300660036003600353
:102A7000C001C001000000000000000000000000D4
:102A8000000000000000000000000000C141C14142
:102A9000C3616363636363633636363636361C1C44
:102AA0001C1C1C1C000000000000000000000000B6
:102AB0000000000000000000000000001C38381C6E
:102AC000300C600660036003600360036006300C36
:102AD000381C1C380000000000000000000000004E
:102AE0000000000000000000000000001830301856
:102AF00030187018600C600CE00CC006C006800333
:102B00008003800380018001C001F000700000009C
:102B1000000000000000000000000000FC1FFC1F7F
:102B2000000C000600038001C000600030001800A7
:102B3000FC1FFC1F0000000000000000000000005F
:102B4000000000038001C000C000C000C000C00041
:102B5000C00060006000300060004000C000C000A5
:102B6000C000C000C000C0008001000300000000E1
:102B700000008001800180018001800180018001CE
:102B8000800180018001800180018001800180013D
:102B900080018001800180018001800180010000AE
:102BA00000006000C000C001800180018001800140
:102BB0008001000300030006000300018001800182
:102BC0008001800180018001C000600000000000E1
:102BD00000000000000000000000000000000000F5
:102BE000F010F81F080F00000000000000000000B7
:102BF00000000000000000000000000000000000D5
:102C0000202C00080000002024000000140200080E
:102C1000442C000824000020640600003002000854
:102C20000000000010000000010000000000000093
:102C30000024F40000000000000000000000FFFF7E
:042C40000000000090
:04000005080001D915
:00000001FF
